{
  "contractName": "AttestationManager",
  "abi": [
    {
      "constant": true,
      "inputs": [],
      "name": "totalSupply",
      "outputs": [
        {
          "name": "",
          "type": "uint256"
        }
      ],
      "payable": false,
      "stateMutability": "view",
      "type": "function"
    },
    {
      "constant": true,
      "inputs": [
        {
          "name": "_owner",
          "type": "address"
        }
      ],
      "name": "balanceOf",
      "outputs": [
        {
          "name": "",
          "type": "uint256"
        }
      ],
      "payable": false,
      "stateMutability": "view",
      "type": "function"
    },
    {
      "constant": true,
      "inputs": [
        {
          "name": "",
          "type": "bytes32"
        }
      ],
      "name": "attestationEngine",
      "outputs": [
        {
          "name": "",
          "type": "address"
        }
      ],
      "payable": false,
      "stateMutability": "view",
      "type": "function"
    },
    {
      "constant": false,
      "inputs": [
        {
          "name": "_to",
          "type": "address"
        },
        {
          "name": "_value",
          "type": "uint256"
        }
      ],
      "name": "transfer",
      "outputs": [
        {
          "name": "",
          "type": "bool"
        }
      ],
      "payable": false,
      "stateMutability": "nonpayable",
      "type": "function"
    },
    {
      "constant": true,
      "inputs": [
        {
          "name": "",
          "type": "bytes32"
        },
        {
          "name": "",
          "type": "bytes32"
        }
      ],
      "name": "tokenDebit",
      "outputs": [
        {
          "name": "",
          "type": "uint256"
        }
      ],
      "payable": false,
      "stateMutability": "view",
      "type": "function"
    },
    {
      "inputs": [
        {
          "name": "_owner",
          "type": "address"
        },
        {
          "name": "_totalSupply",
          "type": "uint256"
        }
      ],
      "payable": false,
      "stateMutability": "nonpayable",
      "type": "constructor"
    },
    {
      "anonymous": false,
      "inputs": [
        {
          "indexed": true,
          "name": "issuer",
          "type": "address"
        },
        {
          "indexed": true,
          "name": "AEid",
          "type": "bytes32"
        },
        {
          "indexed": false,
          "name": "AEaddress",
          "type": "address"
        },
        {
          "indexed": false,
          "name": "updatedAt",
          "type": "uint256"
        }
      ],
      "name": "AEadded",
      "type": "event"
    },
    {
      "anonymous": false,
      "inputs": [
        {
          "indexed": true,
          "name": "issuer",
          "type": "address"
        },
        {
          "indexed": true,
          "name": "AEid",
          "type": "bytes32"
        },
        {
          "indexed": false,
          "name": "updatedAt",
          "type": "uint256"
        }
      ],
      "name": "AEremoved",
      "type": "event"
    },
    {
      "anonymous": false,
      "inputs": [
        {
          "indexed": true,
          "name": "from",
          "type": "address"
        },
        {
          "indexed": true,
          "name": "to",
          "type": "address"
        },
        {
          "indexed": false,
          "name": "value",
          "type": "uint256"
        }
      ],
      "name": "Transfer",
      "type": "event"
    },
    {
      "constant": false,
      "inputs": [
        {
          "name": "AEid",
          "type": "bytes32"
        },
        {
          "name": "AEaddress",
          "type": "address"
        }
      ],
      "name": "addAE",
      "outputs": [],
      "payable": false,
      "stateMutability": "nonpayable",
      "type": "function"
    },
    {
      "constant": false,
      "inputs": [
        {
          "name": "AEid",
          "type": "bytes32"
        }
      ],
      "name": "removeAE",
      "outputs": [],
      "payable": false,
      "stateMutability": "nonpayable",
      "type": "function"
    },
    {
      "constant": false,
      "inputs": [
        {
          "name": "value",
          "type": "bytes32"
        }
      ],
      "name": "calculateBudget",
      "outputs": [
        {
          "name": "",
          "type": "uint256"
        }
      ],
      "payable": false,
      "stateMutability": "nonpayable",
      "type": "function"
    },
    {
      "constant": false,
      "inputs": [
        {
          "name": "value",
          "type": "bytes32"
        },
        {
          "name": "tokens",
          "type": "uint256"
        },
        {
          "name": "AEid",
          "type": "bytes32"
        },
        {
          "name": "addr",
          "type": "address"
        }
      ],
      "name": "sendClaim",
      "outputs": [],
      "payable": false,
      "stateMutability": "nonpayable",
      "type": "function"
    },
    {
      "constant": false,
      "inputs": [
        {
          "name": "AEaddress",
          "type": "address"
        },
        {
          "name": "key",
          "type": "bytes32"
        }
      ],
      "name": "sendTokens",
      "outputs": [],
      "payable": false,
      "stateMutability": "nonpayable",
      "type": "function"
    }
  ],
  "bytecode": "0x608060405234801561001057600080fd5b50604051604080610c658339810180604052810190808051906020019092919080519060200190929190505050818183806000806101000a81548173ffffffffffffffffffffffffffffffffffffffff021916908373ffffffffffffffffffffffffffffffffffffffff1602179055505080600281905550600254600160008473ffffffffffffffffffffffffffffffffffffffff1673ffffffffffffffffffffffffffffffffffffffff1681526020019081526020016000208190555050505050610b84806100e16000396000f3006080604052600436106100a4576000357c0100000000000000000000000000000000000000000000000000000000900463ffffffff16806318160ddd146100a95780631b5fc0cf146100d457806335fb3fac146101255780635a6e1b6d146101765780636a140dfe146101df57806370a08231146102245780637d15e2331461027b578063a440eb43146102ac578063a9059cbb1461031d578063b88bbe0614610382575b600080fd5b3480156100b557600080fd5b506100be6103d5565b6040518082815260200191505060405180910390f35b3480156100e057600080fd5b506101236004803603810190808035600019169060200190929190803573ffffffffffffffffffffffffffffffffffffffff1690602001909291905050506103df565b005b34801561013157600080fd5b50610174600480360381019080803573ffffffffffffffffffffffffffffffffffffffff169060200190929190803560001916906020019092919050505061051f565b005b34801561018257600080fd5b506101dd6004803603810190808035600019169060200190929190803590602001909291908035600019169060200190929190803573ffffffffffffffffffffffffffffffffffffffff169060200190929190505050610523565b005b3480156101eb57600080fd5b5061020e600480360381019080803560001916906020019092919050505061074d565b6040518082815260200191505060405180910390f35b34801561023057600080fd5b50610265600480360381019080803573ffffffffffffffffffffffffffffffffffffffff16906020019092919050505061076f565b6040518082815260200191505060405180910390f35b34801561028757600080fd5b506102aa60048036038101908080356000191690602001909291905050506107b8565b005b3480156102b857600080fd5b506102db60048036038101908080356000191690602001909291905050506108a7565b604051808273ffffffffffffffffffffffffffffffffffffffff1673ffffffffffffffffffffffffffffffffffffffff16815260200191505060405180910390f35b34801561032957600080fd5b50610368600480360381019080803573ffffffffffffffffffffffffffffffffffffffff169060200190929190803590602001909291905050506108da565b604051808215151515815260200191505060405180910390f35b34801561038e57600080fd5b506103bf60048036038101908080356000191690602001909291908035600019169060200190929190505050610afe565b6040518082815260200191505060405180910390f35b6000600254905090565b6000809054906101000a900473ffffffffffffffffffffffffffffffffffffffff1673ffffffffffffffffffffffffffffffffffffffff163373ffffffffffffffffffffffffffffffffffffffff1614151561043a57600080fd5b8060036000846000191660001916815260200190815260200160002060006101000a81548173ffffffffffffffffffffffffffffffffffffffff021916908373ffffffffffffffffffffffffffffffffffffffff16021790555081600019163373ffffffffffffffffffffffffffffffffffffffff167fd4964ca2e4485b3cedd9969f680f982f5ff2e3a15316537b846d44aa2bbacc9b8342604051808373ffffffffffffffffffffffffffffffffffffffff1673ffffffffffffffffffffffffffffffffffffffff1681526020018281526020019250505060405180910390a35050565b5050565b6000836004600085600019166000191681526020019081526020016000206000876040516020018082600019166000191681526020019150506040516020818303038152906040526040518082805190602001908083835b6020831015156105a0578051825260208201915060208101905060208303925061057b565b6001836020036101000a038019825116818451168082178552505050505050905001915050604051809103902060001916600019168152602001908152602001600020819055508190508073ffffffffffffffffffffffffffffffffffffffff16639918925d33876040516020018082600019166000191681526020019150506040516020818303038152906040526040518082805190602001908083835b602083101515610664578051825260208201915060208101905060208303925061063f565b6001836020036101000a0380198251168184511680821785525050505050509050019150506040518091039020886040518463ffffffff167c0100000000000000000000000000000000000000000000000000000000028152600401808473ffffffffffffffffffffffffffffffffffffffff1673ffffffffffffffffffffffffffffffffffffffff168152602001836000191660001916815260200182600019166000191681526020019350505050600060405180830381600087803b15801561072e57600080fd5b505af1158015610742573d6000803e3d6000fd5b505050505050505050565b600080602060ff16141515610765576001905061076a565b600090505b919050565b6000600160008373ffffffffffffffffffffffffffffffffffffffff1673ffffffffffffffffffffffffffffffffffffffff168152602001908152602001600020549050919050565b6000809054906101000a900473ffffffffffffffffffffffffffffffffffffffff1673ffffffffffffffffffffffffffffffffffffffff163373ffffffffffffffffffffffffffffffffffffffff1614151561081357600080fd5b60036000826000191660001916815260200190815260200160002060006101000a81549073ffffffffffffffffffffffffffffffffffffffff021916905580600019163373ffffffffffffffffffffffffffffffffffffffff167fb1fd95de6ff55eb9f4b271fc95f4097db54e63c4c976aaaf37306ebb8addd046426040518082815260200191505060405180910390a350565b60036020528060005260406000206000915054906101000a900473ffffffffffffffffffffffffffffffffffffffff1681565b60008073ffffffffffffffffffffffffffffffffffffffff168373ffffffffffffffffffffffffffffffffffffffff161415151561091757600080fd5b600160003373ffffffffffffffffffffffffffffffffffffffff1673ffffffffffffffffffffffffffffffffffffffff16815260200190815260200160002054821115151561096557600080fd5b6109b782600160003373ffffffffffffffffffffffffffffffffffffffff1673ffffffffffffffffffffffffffffffffffffffff16815260200190815260200160002054610b2390919063ffffffff16565b600160003373ffffffffffffffffffffffffffffffffffffffff1673ffffffffffffffffffffffffffffffffffffffff16815260200190815260200160002081905550610a4c82600160008673ffffffffffffffffffffffffffffffffffffffff1673ffffffffffffffffffffffffffffffffffffffff16815260200190815260200160002054610b3c90919063ffffffff16565b600160008573ffffffffffffffffffffffffffffffffffffffff1673ffffffffffffffffffffffffffffffffffffffff168152602001908152602001600020819055508273ffffffffffffffffffffffffffffffffffffffff163373ffffffffffffffffffffffffffffffffffffffff167fddf252ad1be2c89b69c2b068fc378daa952ba7f163c4a11628f55a4df523b3ef846040518082815260200191505060405180910390a36001905092915050565b6004602052816000526040600020602052806000526040600020600091509150505481565b6000828211151515610b3157fe5b818303905092915050565b60008183019050828110151515610b4f57fe5b809050929150505600a165627a7a723058204021392b8b10eb3cb7c3376879dab47e7ce7f9df850688b74b2363cd169ed4940029",
  "source": "pragma solidity ^0.4.23;\n\nimport './Ownable.sol';\nimport './BasicToken.sol';\nimport './ClaimsRegistry.sol';\n\ncontract AttestationManager is Ownable, BasicToken {\n\n    mapping (bytes32 => address) public attestationEngine;\n    mapping (bytes32 => mapping(bytes32 => uint256)) public tokenDebit;\n\n        constructor (address _owner, uint256 _totalSupply) Ownable(_owner) BasicToken(_owner, _totalSupply) public { }\n\n        event AEadded(\n            address indexed issuer,\n            bytes32 indexed AEid,\n            address AEaddress,\n            uint updatedAt);\n        event AEremoved(\n            address indexed issuer,\n            bytes32 indexed AEid,\n            uint updatedAt);\n\n        //add an attestation engine\n        function addAE(bytes32 AEid, address AEaddress) public onlyOwner{\n            attestationEngine[AEid] = AEaddress;\n            emit AEadded(msg.sender, AEid, AEaddress, now);\n        }   \n\n        //remove an attestation engine\n        function removeAE(bytes32 AEid) public onlyOwner{\n            delete attestationEngine[AEid];\n            emit AEremoved(msg.sender, AEid, now);\n        }\n\n        function calculateBudget(bytes32 value) public returns (uint256){\n            if(value.length != 0){\n                return 1;\n            }\n            return 0;\n        }\n        function sendClaim(bytes32 value, uint256 tokens, bytes32 AEid, address addr){\n            tokenDebit[AEid][keccak256(abi.encodePacked(value))] = tokens;\n            ClaimsRegistry cr = ClaimsRegistry(addr);\n            cr.setClaim(msg.sender, keccak256(abi.encodePacked(value)), value);\n        }\n        function sendTokens(address AEaddress, bytes32 key){\n            // bytes32 AEid = attestationEngine[AEaddress];\n            // uint256 tokens = tokenDebit[AEid][key];\n            // bool sent = transfer(AEaddress, tokens);\n            // if(sent == true) delete tokenDebit[AEid][key];\n        }\n    }\n",
  "sourcePath": "/Users/alicialombarte/Documents/XinCore/PeerMountain/BLK-Abstraction/smartContracts/contracts/AttestationManager.sol",
  "compiler": {
    "name": "solc",
    "version": "0.4.24+commit.e67f0147.Emscripten.clang"
  },
  "schemaVersion": "2.0.0",
  "updatedAt": "2018-06-29T13:53:00.868Z"
}