{
  "contractName": "ClaimsRegistry",
  "abi": [
    {
      "constant": false,
      "inputs": [
        {
          "name": "addr",
          "type": "address"
        }
      ],
      "name": "removeFromWhitelist",
      "outputs": [],
      "payable": false,
      "stateMutability": "nonpayable",
      "type": "function"
    },
    {
      "constant": false,
      "inputs": [
        {
          "name": "addr",
          "type": "address"
        }
      ],
      "name": "addToWhitelist",
      "outputs": [],
      "payable": false,
      "stateMutability": "nonpayable",
      "type": "function"
    },
    {
      "constant": true,
      "inputs": [
        {
          "name": "",
          "type": "address"
        },
        {
          "name": "",
          "type": "address"
        },
        {
          "name": "",
          "type": "bytes32"
        }
      ],
      "name": "registry",
      "outputs": [
        {
          "name": "",
          "type": "bytes32"
        }
      ],
      "payable": false,
      "stateMutability": "view",
      "type": "function"
    },
    {
      "inputs": [
        {
          "name": "_owner",
          "type": "address"
        }
      ],
      "payable": false,
      "stateMutability": "nonpayable",
      "type": "constructor"
    },
    {
      "anonymous": false,
      "inputs": [
        {
          "indexed": true,
          "name": "issuer",
          "type": "address"
        },
        {
          "indexed": true,
          "name": "subject",
          "type": "address"
        },
        {
          "indexed": true,
          "name": "key",
          "type": "bytes32"
        },
        {
          "indexed": false,
          "name": "value",
          "type": "bytes32"
        },
        {
          "indexed": false,
          "name": "updatedAt",
          "type": "uint256"
        }
      ],
      "name": "ClaimSet",
      "type": "event"
    },
    {
      "anonymous": false,
      "inputs": [
        {
          "indexed": true,
          "name": "issuer",
          "type": "address"
        },
        {
          "indexed": true,
          "name": "subject",
          "type": "address"
        },
        {
          "indexed": true,
          "name": "key",
          "type": "bytes32"
        },
        {
          "indexed": false,
          "name": "removedAt",
          "type": "uint256"
        }
      ],
      "name": "ClaimRemoved",
      "type": "event"
    },
    {
      "constant": false,
      "inputs": [
        {
          "name": "subject",
          "type": "address"
        },
        {
          "name": "key",
          "type": "bytes32"
        },
        {
          "name": "value",
          "type": "bytes32"
        }
      ],
      "name": "setClaim",
      "outputs": [],
      "payable": false,
      "stateMutability": "nonpayable",
      "type": "function"
    },
    {
      "constant": false,
      "inputs": [
        {
          "name": "key",
          "type": "bytes32"
        },
        {
          "name": "value",
          "type": "bytes32"
        }
      ],
      "name": "setSelfClaim",
      "outputs": [],
      "payable": false,
      "stateMutability": "nonpayable",
      "type": "function"
    },
    {
      "constant": true,
      "inputs": [
        {
          "name": "issuer",
          "type": "address"
        },
        {
          "name": "subject",
          "type": "address"
        },
        {
          "name": "key",
          "type": "bytes32"
        }
      ],
      "name": "getClaim",
      "outputs": [
        {
          "name": "",
          "type": "bytes32"
        }
      ],
      "payable": false,
      "stateMutability": "view",
      "type": "function"
    },
    {
      "constant": false,
      "inputs": [
        {
          "name": "issuer",
          "type": "address"
        },
        {
          "name": "subject",
          "type": "address"
        },
        {
          "name": "key",
          "type": "bytes32"
        }
      ],
      "name": "removeClaim",
      "outputs": [],
      "payable": false,
      "stateMutability": "nonpayable",
      "type": "function"
    }
  ],
  "bytecode": "0x608060405234801561001057600080fd5b50604051602080610a61833981018060405281019080805190602001909291905050508080806000806101000a81548173ffffffffffffffffffffffffffffffffffffffff021916908373ffffffffffffffffffffffffffffffffffffffff1602179055505061008e81610095640100000000026401000000009004565b50506101c4565b6000809054906101000a900473ffffffffffffffffffffffffffffffffffffffff1673ffffffffffffffffffffffffffffffffffffffff163373ffffffffffffffffffffffffffffffffffffffff161415156100f057600080fd5b6101088161016e640100000000026401000000009004565b15151561011457600080fd5b60018060008373ffffffffffffffffffffffffffffffffffffffff1673ffffffffffffffffffffffffffffffffffffffff16815260200190815260200160002060006101000a81548160ff02191690831515021790555050565b6000600160008373ffffffffffffffffffffffffffffffffffffffff1673ffffffffffffffffffffffffffffffffffffffff16815260200190815260200160002060009054906101000a900460ff169050919050565b61088e806101d36000396000f300608060405260043610610083576000357c0100000000000000000000000000000000000000000000000000000000900463ffffffff1680638ab1d681146100885780639155b01a146100cb5780639918925d1461010a578063c7508ec714610169578063e1661eff146101da578063e43252d714610267578063e6d970aa146102aa575b600080fd5b34801561009457600080fd5b506100c9600480360381019080803573ffffffffffffffffffffffffffffffffffffffff169060200190929190505050610337565b005b3480156100d757600080fd5b5061010860048036038101908080356000191690602001909291908035600019169060200190929190505050610401565b005b34801561011657600080fd5b50610167600480360381019080803573ffffffffffffffffffffffffffffffffffffffff16906020019092919080356000191690602001909291908035600019169060200190929190505050610410565b005b34801561017557600080fd5b506101d8600480360381019080803573ffffffffffffffffffffffffffffffffffffffff169060200190929190803573ffffffffffffffffffffffffffffffffffffffff169060200190929190803560001916906020019092919050505061052d565b005b3480156101e657600080fd5b50610249600480360381019080803573ffffffffffffffffffffffffffffffffffffffff169060200190929190803573ffffffffffffffffffffffffffffffffffffffff169060200190929190803560001916906020019092919050505061066f565b60405180826000191660001916815260200191505060405180910390f35b34801561027357600080fd5b506102a8600480360381019080803573ffffffffffffffffffffffffffffffffffffffff169060200190929190505050610710565b005b3480156102b657600080fd5b50610319600480360381019080803573ffffffffffffffffffffffffffffffffffffffff169060200190929190803573ffffffffffffffffffffffffffffffffffffffff16906020019092919080356000191690602001909291905050506107da565b60405180826000191660001916815260200191505060405180910390f35b6000809054906101000a900473ffffffffffffffffffffffffffffffffffffffff1673ffffffffffffffffffffffffffffffffffffffff163373ffffffffffffffffffffffffffffffffffffffff1614151561039257600080fd5b61039b8161080c565b15156103a657600080fd5b6000600160008373ffffffffffffffffffffffffffffffffffffffff1673ffffffffffffffffffffffffffffffffffffffff16815260200190815260200160002060006101000a81548160ff02191690831515021790555050565b61040c338383610410565b5050565b80600260003373ffffffffffffffffffffffffffffffffffffffff1673ffffffffffffffffffffffffffffffffffffffff16815260200190815260200160002060008573ffffffffffffffffffffffffffffffffffffffff1673ffffffffffffffffffffffffffffffffffffffff16815260200190815260200160002060008460001916600019168152602001908152602001600020816000191690555081600019168373ffffffffffffffffffffffffffffffffffffffff163373ffffffffffffffffffffffffffffffffffffffff167f8c9f893548e8429f9352aba6698e6f4dca2e390604f6e8c5881a7a505d94ae5084426040518083600019166000191681526020018281526020019250505060405180910390a4505050565b8273ffffffffffffffffffffffffffffffffffffffff163373ffffffffffffffffffffffffffffffffffffffff1614151561056757600080fd5b600260008473ffffffffffffffffffffffffffffffffffffffff1673ffffffffffffffffffffffffffffffffffffffff16815260200190815260200160002060008373ffffffffffffffffffffffffffffffffffffffff1673ffffffffffffffffffffffffffffffffffffffff168152602001908152602001600020600082600019166000191681526020019081526020016000206000905580600019168273ffffffffffffffffffffffffffffffffffffffff163373ffffffffffffffffffffffffffffffffffffffff167f7bc046ef9f2fccd4c99778d7e0fbed67ddb16e63e1a266894769de9516b8039a426040518082815260200191505060405180910390a4505050565b6000600260008573ffffffffffffffffffffffffffffffffffffffff1673ffffffffffffffffffffffffffffffffffffffff16815260200190815260200160002060008473ffffffffffffffffffffffffffffffffffffffff1673ffffffffffffffffffffffffffffffffffffffff168152602001908152602001600020600083600019166000191681526020019081526020016000205490509392505050565b6000809054906101000a900473ffffffffffffffffffffffffffffffffffffffff1673ffffffffffffffffffffffffffffffffffffffff163373ffffffffffffffffffffffffffffffffffffffff1614151561076b57600080fd5b6107748161080c565b15151561078057600080fd5b60018060008373ffffffffffffffffffffffffffffffffffffffff1673ffffffffffffffffffffffffffffffffffffffff16815260200190815260200160002060006101000a81548160ff02191690831515021790555050565b600260205282600052604060002060205281600052604060002060205280600052604060002060009250925050505481565b6000600160008373ffffffffffffffffffffffffffffffffffffffff1673ffffffffffffffffffffffffffffffffffffffff16815260200190815260200160002060009054906101000a900460ff1690509190505600a165627a7a723058203655252ce244e45dfb3fb3ec4d568fcb47180ca2240b2b163b91f76ce384afa90029",
  "source": "pragma solidity ^0.4.23;\n\nimport './Whitelisted.sol';\n\ncontract ClaimsRegistry is Whitelisted {\n\n    /* struct MessageData { TODO: see if we can work with the standard, othersiwe we use this struct\n      bytes32 messageSender;\n      bytes32 message;\n      uint64 timestamp;\n    } */\n\n    mapping(address => mapping(address => mapping(bytes32 => bytes32))) public registry;\n\n    constructor (address _owner) Whitelisted(_owner) public { }\n\n    event ClaimSet(\n        address indexed issuer,\n        address indexed subject,\n        bytes32 indexed key,\n        bytes32 value,\n        uint updatedAt);\n\n    event ClaimRemoved(\n        address indexed issuer,\n        address indexed subject,\n        bytes32 indexed key,\n        uint removedAt);\n\n    // create or update clams\n    function setClaim(address subject, bytes32 key, bytes32 value) public {\n        registry[msg.sender][subject][key] = value;\n        emit ClaimSet(msg.sender, subject, key, value, now);\n    }\n\n    function setSelfClaim(bytes32 key, bytes32 value) public {\n        setClaim(msg.sender, key, value);\n    }\n\n    function getClaim(address issuer, address subject, bytes32 key) public view returns(bytes32) {\n        return registry[issuer][subject][key];\n    }\n\n    function removeClaim(address issuer, address subject, bytes32 key) public {\n        require(msg.sender == issuer);\n        delete registry[issuer][subject][key];\n        emit ClaimRemoved(msg.sender, subject, key, now);\n    }\n}\n",
  "sourcePath": "/Users/alicialombarte/notary-contract/smartContracts/contracts/ClaimsRegistry.sol",
  "compiler": {
    "name": "solc",
    "version": "0.4.24+commit.e67f0147.Emscripten.clang"
  },
  "schemaVersion": "2.0.0",
  "updatedAt": "2018-06-05T10:38:05.835Z"
}