{
  "contractName": "ClaimsRegistry",
  "abi": [
    {
      "constant": false,
      "inputs": [
        {
          "name": "addr",
          "type": "address"
        }
      ],
      "name": "removeFromWhitelist",
      "outputs": [],
      "payable": false,
      "stateMutability": "nonpayable",
      "type": "function"
    },
    {
      "constant": false,
      "inputs": [
        {
          "name": "addr",
          "type": "address"
        }
      ],
      "name": "addToWhitelist",
      "outputs": [],
      "payable": false,
      "stateMutability": "nonpayable",
      "type": "function"
    },
    {
      "constant": true,
      "inputs": [
        {
          "name": "",
          "type": "address"
        },
        {
          "name": "",
          "type": "address"
        },
        {
          "name": "",
          "type": "bytes32"
        }
      ],
      "name": "registry",
      "outputs": [
        {
          "name": "",
          "type": "bytes32"
        }
      ],
      "payable": false,
      "stateMutability": "view",
      "type": "function"
    },
    {
      "inputs": [
        {
          "name": "_owner",
          "type": "address"
        }
      ],
      "payable": false,
      "stateMutability": "nonpayable",
      "type": "constructor"
    },
    {
      "anonymous": false,
      "inputs": [
        {
          "indexed": true,
          "name": "issuer",
          "type": "address"
        },
        {
          "indexed": true,
          "name": "subject",
          "type": "address"
        },
        {
          "indexed": true,
          "name": "key",
          "type": "bytes32"
        },
        {
          "indexed": false,
          "name": "value",
          "type": "bytes32"
        },
        {
          "indexed": false,
          "name": "updatedAt",
          "type": "uint256"
        }
      ],
      "name": "ClaimSet",
      "type": "event"
    },
    {
      "anonymous": false,
      "inputs": [
        {
          "indexed": true,
          "name": "issuer",
          "type": "address"
        },
        {
          "indexed": true,
          "name": "subject",
          "type": "address"
        },
        {
          "indexed": true,
          "name": "key",
          "type": "bytes32"
        },
        {
          "indexed": false,
          "name": "removedAt",
          "type": "uint256"
        }
      ],
      "name": "ClaimRemoved",
      "type": "event"
    },
    {
      "constant": false,
      "inputs": [
        {
          "name": "subject",
          "type": "address"
        },
        {
          "name": "key",
          "type": "bytes32"
        },
        {
          "name": "value",
          "type": "bytes32"
        }
      ],
      "name": "setClaim",
      "outputs": [],
      "payable": false,
      "stateMutability": "nonpayable",
      "type": "function"
    },
    {
      "constant": false,
      "inputs": [
        {
          "name": "key",
          "type": "bytes32"
        },
        {
          "name": "value",
          "type": "bytes32"
        }
      ],
      "name": "setSelfClaim",
      "outputs": [],
      "payable": false,
      "stateMutability": "nonpayable",
      "type": "function"
    },
    {
      "constant": true,
      "inputs": [
        {
          "name": "issuer",
          "type": "address"
        },
        {
          "name": "subject",
          "type": "address"
        },
        {
          "name": "key",
          "type": "bytes32"
        }
      ],
      "name": "getClaim",
      "outputs": [
        {
          "name": "",
          "type": "bytes32"
        }
      ],
      "payable": false,
      "stateMutability": "view",
      "type": "function"
    },
    {
      "constant": false,
      "inputs": [
        {
          "name": "addr",
          "type": "address"
        },
        {
          "name": "key",
          "type": "bytes32"
        }
      ],
      "name": "retrieveTokens",
      "outputs": [],
      "payable": false,
      "stateMutability": "nonpayable",
      "type": "function"
    }
  ],
  "bytecode": "0x608060405234801561001057600080fd5b506040516020806109cc833981018060405281019080805190602001909291905050508080806000806101000a81548173ffffffffffffffffffffffffffffffffffffffff021916908373ffffffffffffffffffffffffffffffffffffffff1602179055505061008e81610095640100000000026401000000009004565b50506101c4565b6000809054906101000a900473ffffffffffffffffffffffffffffffffffffffff1673ffffffffffffffffffffffffffffffffffffffff163373ffffffffffffffffffffffffffffffffffffffff161415156100f057600080fd5b6101088161016e640100000000026401000000009004565b15151561011457600080fd5b60018060008373ffffffffffffffffffffffffffffffffffffffff1673ffffffffffffffffffffffffffffffffffffffff16815260200190815260200160002060006101000a81548160ff02191690831515021790555050565b6000600160008373ffffffffffffffffffffffffffffffffffffffff1673ffffffffffffffffffffffffffffffffffffffff16815260200190815260200160002060009054906101000a900460ff169050919050565b6107f9806101d36000396000f300608060405260043610610083576000357c0100000000000000000000000000000000000000000000000000000000900463ffffffff1680635aeadd83146100885780638ab1d681146100d95780639155b01a1461011c5780639918925d1461015b578063e1661eff146101ba578063e43252d714610247578063e6d970aa1461028a575b600080fd5b34801561009457600080fd5b506100d7600480360381019080803573ffffffffffffffffffffffffffffffffffffffff1690602001909291908035600019169060200190929190505050610317565b005b3480156100e557600080fd5b5061011a600480360381019080803573ffffffffffffffffffffffffffffffffffffffff1690602001909291905050506103e4565b005b34801561012857600080fd5b50610159600480360381019080803560001916906020019092919080356000191690602001909291905050506104ae565b005b34801561016757600080fd5b506101b8600480360381019080803573ffffffffffffffffffffffffffffffffffffffff169060200190929190803560001916906020019092919080356000191690602001909291905050506104bd565b005b3480156101c657600080fd5b50610229600480360381019080803573ffffffffffffffffffffffffffffffffffffffff169060200190929190803573ffffffffffffffffffffffffffffffffffffffff16906020019092919080356000191690602001909291905050506105da565b60405180826000191660001916815260200191505060405180910390f35b34801561025357600080fd5b50610288600480360381019080803573ffffffffffffffffffffffffffffffffffffffff16906020019092919050505061067b565b005b34801561029657600080fd5b506102f9600480360381019080803573ffffffffffffffffffffffffffffffffffffffff169060200190929190803573ffffffffffffffffffffffffffffffffffffffff1690602001909291908035600019169060200190929190505050610745565b60405180826000191660001916815260200191505060405180910390f35b60008290508073ffffffffffffffffffffffffffffffffffffffff166335fb3fac33846040518363ffffffff167c0100000000000000000000000000000000000000000000000000000000028152600401808373ffffffffffffffffffffffffffffffffffffffff1673ffffffffffffffffffffffffffffffffffffffff168152602001826000191660001916815260200192505050600060405180830381600087803b1580156103c757600080fd5b505af11580156103db573d6000803e3d6000fd5b50505050505050565b6000809054906101000a900473ffffffffffffffffffffffffffffffffffffffff1673ffffffffffffffffffffffffffffffffffffffff163373ffffffffffffffffffffffffffffffffffffffff1614151561043f57600080fd5b61044881610777565b151561045357600080fd5b6000600160008373ffffffffffffffffffffffffffffffffffffffff1673ffffffffffffffffffffffffffffffffffffffff16815260200190815260200160002060006101000a81548160ff02191690831515021790555050565b6104b93383836104bd565b5050565b80600260003373ffffffffffffffffffffffffffffffffffffffff1673ffffffffffffffffffffffffffffffffffffffff16815260200190815260200160002060008573ffffffffffffffffffffffffffffffffffffffff1673ffffffffffffffffffffffffffffffffffffffff16815260200190815260200160002060008460001916600019168152602001908152602001600020816000191690555081600019168373ffffffffffffffffffffffffffffffffffffffff163373ffffffffffffffffffffffffffffffffffffffff167f8c9f893548e8429f9352aba6698e6f4dca2e390604f6e8c5881a7a505d94ae5084426040518083600019166000191681526020018281526020019250505060405180910390a4505050565b6000600260008573ffffffffffffffffffffffffffffffffffffffff1673ffffffffffffffffffffffffffffffffffffffff16815260200190815260200160002060008473ffffffffffffffffffffffffffffffffffffffff1673ffffffffffffffffffffffffffffffffffffffff168152602001908152602001600020600083600019166000191681526020019081526020016000205490509392505050565b6000809054906101000a900473ffffffffffffffffffffffffffffffffffffffff1673ffffffffffffffffffffffffffffffffffffffff163373ffffffffffffffffffffffffffffffffffffffff161415156106d657600080fd5b6106df81610777565b1515156106eb57600080fd5b60018060008373ffffffffffffffffffffffffffffffffffffffff1673ffffffffffffffffffffffffffffffffffffffff16815260200190815260200160002060006101000a81548160ff02191690831515021790555050565b600260205282600052604060002060205281600052604060002060205280600052604060002060009250925050505481565b6000600160008373ffffffffffffffffffffffffffffffffffffffff1673ffffffffffffffffffffffffffffffffffffffff16815260200190815260200160002060009054906101000a900460ff1690509190505600a165627a7a7230582025c34c01fbfa65c3af95508614ea930e4127774549f4131888d4a4e5a42dddcc0029",
  "source": "pragma solidity ^0.4.23;\n\nimport './Whitelisted.sol';\nimport './AttestationManager.sol';\n\ncontract ClaimsRegistry is Whitelisted {\n\n    /* struct MessageData { TODO: see if we can work with the standard, othersiwe we use this struct\n      bytes32 messageSender;\n      bytes32 message;\n      uint64 timestamp;\n    } */\n\n    mapping(address => mapping(address => mapping(bytes32 => bytes32))) public registry;\n\n    constructor (address _owner) Whitelisted(_owner) public { }\n\n    event ClaimSet(\n        address indexed issuer,\n        address indexed subject,\n        bytes32 indexed key,\n        bytes32 value,\n        uint updatedAt);\n\n    event ClaimRemoved(\n        address indexed issuer,\n        address indexed subject,\n        bytes32 indexed key,\n        uint removedAt);\n\n    // create or update clams\n    function setClaim(address subject, bytes32 key, bytes32 value) public {\n        registry[msg.sender][subject][key] = value;\n        emit ClaimSet(msg.sender, subject, key, value, now);\n    }\n\n    function setSelfClaim(bytes32 key, bytes32 value) public {\n        setClaim(msg.sender, key, value);\n    }\n\n    function getClaim(address issuer, address subject, bytes32 key) public view returns(bytes32) {\n        return registry[issuer][subject][key];\n    }\n\n    // function removeClaim(address issuer, address subject, bytes32 key) public {\n    //     require(msg.sender == issuer);\n    //     delete registry[issuer][subject][key];\n    //     emit ClaimRemoved(msg.sender, subject, key, now);\n    // }\n    function retrieveTokens(address addr, bytes32 key){\n        AttestationManager am = AttestationManager(addr);\n        am.sendTokens(msg.sender, key); \n    }\n \n}\n",
  "sourcePath": "/Users/alicialombarte/Documents/XinCore/PeerMountain/BLK-Abstraction/smartContracts/contracts/ClaimsRegistry.sol",
  "compiler": {
    "name": "solc",
    "version": "0.4.24+commit.e67f0147.Emscripten.clang"
  },
  "schemaVersion": "2.0.0",
  "updatedAt": "2018-06-29T13:53:00.866Z"
}