{
  "contractName": "Whitelisted",
  "abi": [
    {
      "inputs": [
        {
          "name": "_owner",
          "type": "address"
        }
      ],
      "payable": false,
      "stateMutability": "nonpayable",
      "type": "constructor"
    },
    {
      "constant": false,
      "inputs": [
        {
          "name": "addr",
          "type": "address"
        }
      ],
      "name": "addToWhitelist",
      "outputs": [],
      "payable": false,
      "stateMutability": "nonpayable",
      "type": "function"
    },
    {
      "constant": false,
      "inputs": [
        {
          "name": "addr",
          "type": "address"
        }
      ],
      "name": "removeFromWhitelist",
      "outputs": [],
      "payable": false,
      "stateMutability": "nonpayable",
      "type": "function"
    }
  ],
  "bytecode": "0x608060405234801561001057600080fd5b506040516020806104be8339810180604052810190808051906020019092919050505080806000806101000a81548173ffffffffffffffffffffffffffffffffffffffff021916908373ffffffffffffffffffffffffffffffffffffffff1602179055505061008d81610093640100000000026401000000009004565b506101c2565b6000809054906101000a900473ffffffffffffffffffffffffffffffffffffffff1673ffffffffffffffffffffffffffffffffffffffff163373ffffffffffffffffffffffffffffffffffffffff161415156100ee57600080fd5b6101068161016c640100000000026401000000009004565b15151561011257600080fd5b60018060008373ffffffffffffffffffffffffffffffffffffffff1673ffffffffffffffffffffffffffffffffffffffff16815260200190815260200160002060006101000a81548160ff02191690831515021790555050565b6000600160008373ffffffffffffffffffffffffffffffffffffffff1673ffffffffffffffffffffffffffffffffffffffff16815260200190815260200160002060009054906101000a900460ff169050919050565b6102ed806101d16000396000f30060806040526004361061004c576000357c0100000000000000000000000000000000000000000000000000000000900463ffffffff1680638ab1d68114610051578063e43252d714610094575b600080fd5b34801561005d57600080fd5b50610092600480360381019080803573ffffffffffffffffffffffffffffffffffffffff1690602001909291905050506100d7565b005b3480156100a057600080fd5b506100d5600480360381019080803573ffffffffffffffffffffffffffffffffffffffff1690602001909291905050506101a1565b005b6000809054906101000a900473ffffffffffffffffffffffffffffffffffffffff1673ffffffffffffffffffffffffffffffffffffffff163373ffffffffffffffffffffffffffffffffffffffff1614151561013257600080fd5b61013b8161026b565b151561014657600080fd5b6000600160008373ffffffffffffffffffffffffffffffffffffffff1673ffffffffffffffffffffffffffffffffffffffff16815260200190815260200160002060006101000a81548160ff02191690831515021790555050565b6000809054906101000a900473ffffffffffffffffffffffffffffffffffffffff1673ffffffffffffffffffffffffffffffffffffffff163373ffffffffffffffffffffffffffffffffffffffff161415156101fc57600080fd5b6102058161026b565b15151561021157600080fd5b60018060008373ffffffffffffffffffffffffffffffffffffffff1673ffffffffffffffffffffffffffffffffffffffff16815260200190815260200160002060006101000a81548160ff02191690831515021790555050565b6000600160008373ffffffffffffffffffffffffffffffffffffffff1673ffffffffffffffffffffffffffffffffffffffff16815260200190815260200160002060009054906101000a900460ff1690509190505600a165627a7a72305820f70f203289793b4cc5af220a5a276a5f092e624958fe843b08ca5750df3ef6f30029",
  "source": "pragma solidity ^0.4.23;\n\nimport './Ownable.sol';\n\ncontract Whitelisted is Ownable {\n\n    constructor(address _owner) Ownable(_owner) public {\n        addToWhitelist(_owner);\n    }\n\n    mapping(address => bool) internal whitelistedAddresses;\n\n    function isWhitelisted(address addr) internal view returns (bool) {\n        return whitelistedAddresses[addr];\n    }\n\n    function addToWhitelist(address addr) public onlyOwner {\n        require(!isWhitelisted(addr));\n        whitelistedAddresses[addr] = true;\n    }\n\n    function removeFromWhitelist(address addr) public onlyOwner {\n        require(isWhitelisted(addr));\n        whitelistedAddresses[addr] = false;\n    }\n\n    modifier onlyWhitelisted {\n        if(!isWhitelisted(msg.sender))\n          revert(\"msg.sender is not allowed to call that function\");\n        _;\n    }\n}\n",
  "sourcePath": "/Users/alicialombarte/Documents/XinCore/PeerMountain/notary-contract/smartContracts/contracts/Whitelisted.sol",
  "compiler": {
    "name": "solc",
    "version": "0.4.24+commit.e67f0147.Emscripten.clang"
  },
  "schemaVersion": "2.0.0",
  "updatedAt": "2018-06-27T11:28:54.455Z"
}